{
  "_format": "hh-sol-artifact-1",
  "contractName": "Transaction",
  "sourceName": "contracts/Transaction.sol",
  "abi": [
    {
      "anonymous": false,
      "inputs": [
        {
          "indexed": false,
          "internalType": "address",
          "name": "from",
          "type": "address"
        },
        {
          "indexed": false,
          "internalType": "address",
          "name": "receiver",
          "type": "address"
        },
        {
          "indexed": false,
          "internalType": "uint256",
          "name": "amount",
          "type": "uint256"
        },
        {
          "indexed": false,
          "internalType": "string",
          "name": "message",
          "type": "string"
        },
        {
          "indexed": false,
          "internalType": "uint256",
          "name": "timestamp",
          "type": "uint256"
        },
        {
          "indexed": false,
          "internalType": "string",
          "name": "keyword",
          "type": "string"
        }
      ],
      "name": "Transfer",
      "type": "event"
    },
    {
      "inputs": [
        {
          "internalType": "address payable",
          "name": "receiver",
          "type": "address"
        },
        {
          "internalType": "uint256",
          "name": "amount",
          "type": "uint256"
        },
        {
          "internalType": "string",
          "name": "message",
          "type": "string"
        },
        {
          "internalType": "string",
          "name": "keyword",
          "type": "string"
        }
      ],
      "name": "addToBloackchain",
      "outputs": [],
      "stateMutability": "nonpayable",
      "type": "function"
    },
    {
      "inputs": [],
      "name": "getAllTransactions",
      "outputs": [
        {
          "components": [
            {
              "internalType": "address",
              "name": "sender",
              "type": "address"
            },
            {
              "internalType": "address",
              "name": "receiver",
              "type": "address"
            },
            {
              "internalType": "uint256",
              "name": "amount",
              "type": "uint256"
            },
            {
              "internalType": "string",
              "name": "message",
              "type": "string"
            },
            {
              "internalType": "uint256",
              "name": "timestamp",
              "type": "uint256"
            },
            {
              "internalType": "string",
              "name": "keyword",
              "type": "string"
            }
          ],
          "internalType": "struct Transaction.TransferStruct[]",
          "name": "",
          "type": "tuple[]"
        }
      ],
      "stateMutability": "view",
      "type": "function"
    },
    {
      "inputs": [],
      "name": "getTransactionCount",
      "outputs": [
        {
          "internalType": "uint256",
          "name": "",
          "type": "uint256"
        }
      ],
      "stateMutability": "view",
      "type": "function"
    }
  ],
  "bytecode": "0x608060405234801561001057600080fd5b50610e0c806100206000396000f3fe608060405234801561001057600080fd5b50600436106100415760003560e01c80630c0fc1561461004657806327506f53146100625780632e7700f014610080575b600080fd5b610060600480360381019061005b919061068c565b61009e565b005b61006a610252565b604051610077919061092c565b60405180910390f35b610088610495565b604051610095919061095d565b60405180910390f35b60016000808282546100b091906109a7565b9250508190555060016040518060c001604052803373ffffffffffffffffffffffffffffffffffffffff1681526020018673ffffffffffffffffffffffffffffffffffffffff16815260200185815260200184815260200142815260200183815250908060018154018082558091505060019003906000526020600020906006020160009091909190915060008201518160000160006101000a81548173ffffffffffffffffffffffffffffffffffffffff021916908373ffffffffffffffffffffffffffffffffffffffff16021790555060208201518160010160006101000a81548173ffffffffffffffffffffffffffffffffffffffff021916908373ffffffffffffffffffffffffffffffffffffffff1602179055506040820151816002015560608201518160030190816101e89190610be7565b506080820151816004015560a08201518160050190816102089190610be7565b5050507f416cfa4330a4565f45c2fd2dd4826a83a37443aba2ce6f79477c7355afac35fa33858585428660405161024496959493929190610d67565b60405180910390a150505050565b60606001805480602002602001604051908101604052809291908181526020016000905b8282101561048c57838290600052602060002090600602016040518060c00160405290816000820160009054906101000a900473ffffffffffffffffffffffffffffffffffffffff1673ffffffffffffffffffffffffffffffffffffffff1673ffffffffffffffffffffffffffffffffffffffff1681526020016001820160009054906101000a900473ffffffffffffffffffffffffffffffffffffffff1673ffffffffffffffffffffffffffffffffffffffff1673ffffffffffffffffffffffffffffffffffffffff1681526020016002820154815260200160038201805461035f90610a0a565b80601f016020809104026020016040519081016040528092919081815260200182805461038b90610a0a565b80156103d85780601f106103ad576101008083540402835291602001916103d8565b820191906000526020600020905b8154815290600101906020018083116103bb57829003601f168201915b50505050508152602001600482015481526020016005820180546103fb90610a0a565b80601f016020809104026020016040519081016040528092919081815260200182805461042790610a0a565b80156104745780601f1061044957610100808354040283529160200191610474565b820191906000526020600020905b81548152906001019060200180831161045757829003601f168201915b50505050508152505081526020019060010190610276565b50505050905090565b60008054905090565b6000604051905090565b600080fd5b600080fd5b600073ffffffffffffffffffffffffffffffffffffffff82169050919050565b60006104dd826104b2565b9050919050565b6104ed816104d2565b81146104f857600080fd5b50565b60008135905061050a816104e4565b92915050565b6000819050919050565b61052381610510565b811461052e57600080fd5b50565b6000813590506105408161051a565b92915050565b600080fd5b600080fd5b6000601f19601f8301169050919050565b7f4e487b7100000000000000000000000000000000000000000000000000000000600052604160045260246000fd5b61059982610550565b810181811067ffffffffffffffff821117156105b8576105b7610561565b5b80604052505050565b60006105cb61049e565b90506105d78282610590565b919050565b600067ffffffffffffffff8211156105f7576105f6610561565b5b61060082610550565b9050602081019050919050565b82818337600083830152505050565b600061062f61062a846105dc565b6105c1565b90508281526020810184848401111561064b5761064a61054b565b5b61065684828561060d565b509392505050565b600082601f83011261067357610672610546565b5b813561068384826020860161061c565b91505092915050565b600080600080608085870312156106a6576106a56104a8565b5b60006106b4878288016104fb565b94505060206106c587828801610531565b935050604085013567ffffffffffffffff8111156106e6576106e56104ad565b5b6106f28782880161065e565b925050606085013567ffffffffffffffff811115610713576107126104ad565b5b61071f8782880161065e565b91505092959194509250565b600081519050919050565b600082825260208201905092915050565b6000819050602082019050919050565b6000610762826104b2565b9050919050565b61077281610757565b82525050565b61078181610510565b82525050565b600081519050919050565b600082825260208201905092915050565b60005b838110156107c15780820151818401526020810190506107a6565b60008484015250505050565b60006107d882610787565b6107e28185610792565b93506107f28185602086016107a3565b6107fb81610550565b840191505092915050565b600060c08301600083015161081e6000860182610769565b5060208301516108316020860182610769565b5060408301516108446040860182610778565b506060830151848203606086015261085c82826107cd565b91505060808301516108716080860182610778565b5060a083015184820360a086015261088982826107cd565b9150508091505092915050565b60006108a28383610806565b905092915050565b6000602082019050919050565b60006108c28261072b565b6108cc8185610736565b9350836020820285016108de85610747565b8060005b8581101561091a57848403895281516108fb8582610896565b9450610906836108aa565b925060208a019950506001810190506108e2565b50829750879550505050505092915050565b6000602082019050818103600083015261094681846108b7565b905092915050565b61095781610510565b82525050565b6000602082019050610972600083018461094e565b92915050565b7f4e487b7100000000000000000000000000000000000000000000000000000000600052601160045260246000fd5b60006109b282610510565b91506109bd83610510565b92508282019050808211156109d5576109d4610978565b5b92915050565b7f4e487b7100000000000000000000000000000000000000000000000000000000600052602260045260246000fd5b60006002820490506001821680610a2257607f821691505b602082108103610a3557610a346109db565b5b50919050565b60008190508160005260206000209050919050565b60006020601f8301049050919050565b600082821b905092915050565b600060088302610a9d7fffffffffffffffffffffffffffffffffffffffffffffffffffffffffffffffff82610a60565b610aa78683610a60565b95508019841693508086168417925050509392505050565b6000819050919050565b6000610ae4610adf610ada84610510565b610abf565b610510565b9050919050565b6000819050919050565b610afe83610ac9565b610b12610b0a82610aeb565b848454610a6d565b825550505050565b600090565b610b27610b1a565b610b32818484610af5565b505050565b5b81811015610b5657610b4b600082610b1f565b600181019050610b38565b5050565b601f821115610b9b57610b6c81610a3b565b610b7584610a50565b81016020851015610b84578190505b610b98610b9085610a50565b830182610b37565b50505b505050565b600082821c905092915050565b6000610bbe60001984600802610ba0565b1980831691505092915050565b6000610bd78383610bad565b9150826002028217905092915050565b610bf082610787565b67ffffffffffffffff811115610c0957610c08610561565b5b610c138254610a0a565b610c1e828285610b5a565b600060209050601f831160018114610c515760008415610c3f578287015190505b610c498582610bcb565b865550610cb1565b601f198416610c5f86610a3b565b60005b82811015610c8757848901518255600182019150602085019450602081019050610c62565b86831015610ca45784890151610ca0601f891682610bad565b8355505b6001600288020188555050505b505050505050565b610cc281610757565b82525050565b6000610ce3610cde610cd9846104b2565b610abf565b6104b2565b9050919050565b6000610cf582610cc8565b9050919050565b6000610d0782610cea565b9050919050565b610d1781610cfc565b82525050565b600082825260208201905092915050565b6000610d3982610787565b610d438185610d1d565b9350610d538185602086016107a3565b610d5c81610550565b840191505092915050565b600060c082019050610d7c6000830189610cb9565b610d896020830188610d0e565b610d96604083018761094e565b8181036060830152610da88186610d2e565b9050610db7608083018561094e565b81810360a0830152610dc98184610d2e565b905097965050505050505056fea2646970667358221220f93f28e73af5f70ce600b3a780543190802f86100c365962ae7fb72c51b0974a64736f6c63430008110033",
  "linkReferences": {},
  "deployedLinkReferences": {}
}